:10054B00BFAABBFAD6D0210A00D3D0B7E7A3ACB56C
:10055B00E7BBFAB9A4D7F7210A00B3F5CABCCAB1F5
:10056B00BECDCAC7CEDEB7E7A3ACB5E7BBFAB2BB0D
:10057B00B9A4D7F7210A00D3D0B7E7B5BDCEDEB704
:10058B00E7A3ACB5E7BBFAD1D3CAB1B9D8B1D52182
:02059B000A0054
:10036A0012061BD290D2A07BFF7A05794B1200703D
:10037A00D3E5259410E524942740EAE4F522209059
:10038A002B752901752601E4F523F527F528F52CA7
:10039A00F52DC3E52B9464E52A940040E1E4F526A3
:1003AA00C2A0F5267BFF7A057954802A30902CE585
:1003BA00297028F526F52AF52B752301C3E528941B
:1003CA0064E527940040B7E4F523F527F528D2A081
:1003DA007BFF7A05796512007080A33090A0E52929
:1003EA00B4019BE4F526F52AF52B752301C3E5280C
:1003FA009464E52794004086E4F527F528052DE561
:10040A002D7002052C9464E52C9400500302038895
:10041A00D2A0E4F52CF52DF523F5297BFF7A057991
:07042A00821200700203883A
:1005FE0001220102240000012600022A000001232C
:0C060E000002270000012900022C00005F
:10061B00538E7F5389F0438901758A18758CFCC200
:08062B008DD2A9D2AFD28C22BE
:03000B0002059D4E
:10059D00C0E0C0D0C28C758A18758CFCE522B40100
:1005AD00080525E52570020524E526B40108052B6F
:1005BD00E52B7002052AE523B401080528E528700E
:0A05CD00020527D28CD0D0D0E03216
:030000000204BF38
:0C04BF00787FE4F6D8FD75812D0205065B
:10000E00E517240BF8E60517227808300702780B5F
:10001E00E475F0011204890204312000EB7F2ED228
:10002E00008018EF540F2490D43440D4FF30040BCA
:10003E00EF24BFB41A0050032461FFE518600215C7
:10004E0018051BE51B7002051A30070D7808E475BC
:10005E00F001120489EF0204770205D77403D20768
:10006E008003E4C207F5178B088A09890AE4F5189C
:10007E00F51AF51BE51860077F2012004980F5750B
:10008E0019FFC201C200C202C203C205C206C208E3
:10009E00120017FF700D3007057F0012005AAF1BBC
:1000AE00AE1A22B4255FC2D5C204120017FF24D0A7
:1000BE00B40A00501A75F00A781830D50508B6FF44
:1000CE000106C6A426F620D5047002D20380D924D8
:1000DE00CFB41A00EF5004C2E5D20402025AD20184
:1000EE0080C6D20080C0D20280BCD2D580BAD205E2
:1000FE0080B47F201200492002077401B518004019
:10010E00F112000EFF120049020082D208D20680C0
:10011E009512000EFB12000EFA12000EF94A4B70E9
:10012E0006792B7A037BFF20022EE518602A7E00CB
:10013E008E8275830012044A60060EEE651970F009
:10014E00C2D5EBC0E0EAC0E0E9C0E0EE1202A1D0F9
:10015E00E0F9D0E0FAD0E0FB120431FF60AAEBC068
:10016E00E0EAC0E0E9C0E0120049D0E02401F9D095
:10017E00E03400FAD0E0FBE5190460DCD519D98033
:10018E00877BFF7A02799DD202809C79108002795A
:10019E0008C206C2088008D2D5790A8004790AC23C
:1001AE00D5E519047002F519E4FAFDFEFF12000EF2
:1001BE00FC7B0820011312000EFD7B1030000A128A
:1001CE00000EFE12000EFF7B20EC3382D592D5502E
:1001DE0013C3E43000069FFFE49EFEE42001039D5E
:1001EE00FDE49CFCE4CBF8C201EC700CCFCECDCC80
:1001FE00E824F8F870F38017C3EF33FFEE33FEED0B
:10020E0033FDEC33FCEB33FB994002FB0FD8E9EBEB
:10021E00300105F8D0E0C448B201C0E00AEC4D4E02
:10022E004F78207B0070C2EAB5190040BCC0E012C6
:10023E0002A3D0F0D0E0200104C4C0E0C4B201C0DB
:10024E00F0120032D0F0D5F0EB02008212049901C8
:10025E001F5301995800F04C00EC42019D4F01A52F
:0F026E004401A54901054301AB55018F46018F9E
:10027D0045018F47034B5000F42D00F82E011B2B29
:10028D0000FC2301192003342A00B4480000011397
:10029D003F3F3F00790AA2D5200314300509B9105C
:1002AD00020404B9080104A2D5200602500104205D
:1002BD0002689202B518005034C0E07F2030031957
:1002CD007F30A20272067205500F1202FAC202C2EC
:1002DD0006C205C2087F30800F300503E9C0E01269
:1002ED000049300503D0E0F9D0E0B518CC30051742
:1002FD007F30B9100C1200497F583004077F788089
:10030D0003B908031200493002057F2D0200497F11
:10031D00202008F87F2B2006F322920280CF286E32
:10032D00756C6C2900D20112000E3001F8C20178F3
:10033D001830D50108F60200B42D5043495812006B
:10034D000E2403B405004001E49003469312003AD5
:0D035D00743A12003AD20375180402019997
:1004CB0002036AE493A3F8E493A34003F68001F2DA
:1004DB0008DFF48029E493A3F85407240CC8C33332
:1004EB00C4540F4420C8834004F456800146F6DF01
:1004FB00E4800B01020408102040809005FEE47E8E
:10050B00019360BCA3FF543F30E509541FFEE493F5
:10051B00A360010ECF54C025E060A840B8E493A3BC
:10052B00FAE493A3F8E493A3C8C582C8CAC583CAE7
:10053B00F0A3C8C582C8CAC583CADFE9DEE780BE9F
:01061A0000DF
:10043100BB010689828A83E0225002E722BBFE02C9
:09044100E32289828A83E49322FC
:10044A00BB010CE58229F582E5833AF583E0225067
:10045A0006E92582F8E622BBFE06E92582F8E222B1
:0D046A00E58229F582E5833AF583E49322CB
:10047700BB010689828A83F0225002F722BBFE0164
:02048700F3225E
:10048900FAE6FB0808E6F925F0F618E6CA3AF62274
:10049900D083D082F8E4937012740193700DA3A3F2
:1004A90093F8740193F5828883E473740293686006
:0604B900EFA3A3A380DF06
:1005D700EFB40A07740D1205E2740A309811A8994E
:1005E700B8130CC2983098FDA899C298B811F63084
:0705F70099FDC299F599225C
:00000001FF
